:1000000009C01AC018C017C016C015C014C013C04C
:1000100012C011C011241FBECFE9CDBF10E0A0E671
:10002000B0E0E4E3F1E002C005900D92A236B10722
:10003000D9F773D070C0E4CF1F920F920FB60F9212
:1000400011240F931F932F933F934F935F936F93BD
:100050007F938F939F93AF93BF93CF93DF93EF9350
:10006000FF93F89480E090E020E030E0C1E0D0E041
:1000700016B3A12FA170B0E016B3412F417050E02C
:100080004A175B0729F413E01A95F1F70000F4CF43
:10009000B29909C08E01082E02C0000F111F0A94E8
:1000A000E2F7202B312B16B3E12FE170F0E016B30D
:1000B000612F617070E06E177F0729F413E01A95C5
:1000C000F1F70000F4CF01968C30910589F62C30C1
:1000D000384059F4C49A9FEF1BED25E09150104031
:1000E0002040E1F700C00000C4987894FF91EF91A0
:1000F000DF91CF91BF91AF919F918F917F916F9140
:100100005F914F913F912F911F910F910F900FBED3
:100110000F901F901895F8940BC0BC9A80E48BBF89
:1001200082E085BF789483E08A95F1F70000FBCFE9
:04013000F894FFCF71
:020134000C08B5
:00000001FF
