:100000000CC03DC0F7C1F6C1F5C1F4C1F3C1F2C1E6
:10001000F1C1F0C100600066800011241FBECFE96D
:10002000CDBFE4E1F0E040E017C0B591A591359176
:100030002591059107FD0CC095918591EF01F92F50
:10004000E82F05900D92A217B307D9F7FE0104C05F
:100050001D92A217B307E1F7E931F40731F788D110
:06006000C2C1F894FFCFBD
:10006600808080FFFFFFFF0000800D80008000FF82
:08007600FF000000FF00FFFF86
:10007E001F920F920FB60F9211242F933F934F930F
:10008E005F936F937F938F939F93AF93BF93CF9312
:10009E00DF93EF93FF93F894C0E0D0E070E02DC0B3
:1000AE0066B3617004C043E04A95F1F7000046B3B1
:1000BE00842F817090E0462F50E08417950799F3B6
:1000CE00B2990AC041E050E0072E02C0440F551FFE
:1000DE000A94E2F7C42BD52B66B3617004C043E0DB
:1000EE004A95F1F7000046B3242F217030E0462FD9
:1000FE0050E02417350799F37F5F7C3088F2CC30BF
:10010E0084E0D80799F48091620081110FC088B302
:10011E00806188BB9FEF2BED45E091502040404021
:10012E00E1F700C0000088B38F7E88BBCC3088E03A
:10013E00D80799F48091650081110FC088B3806152
:10014E0088BB9FEF21EF4BE2915020404040E1F7FA
:10015E0000C0000088B38F7E88BBCE30D10519F465
:10016E0080E0DAD0EDD0CC3082E0D80719F481E00F
:10017E00D3D0E6D0C63094E0D90719F482E0CCD0C3
:10018E00DFD0C630D84019F583E01ED190E001963D
:10019E0090936400809363008093600009974CF005
:1001AE0081E08093600081E090E090936400809302
:1001BE0063006091600083E0F1D0C2D04FEF82E522
:1001CE0097E0415080409040E1F700C000007894E5
:1001DE00FF91EF91DF91CF91BF91AF919F918F9151
:1001EE007F916F915F914F913F912F910F900FBE25
:0601FE000F901F90189500
:100204000F931F9397B3982B97BB98B3382F3095C0
:100214003923982B042F10E8012311F411C0000096
:1002240098BB0000169530F000C0042F012338BBA2
:10023400B1F706C010E8062F012338BB91F422C0A1
:1002440098BB169538F0000038BB00C0042F01237A
:1002540031F7F6CF38BB000010E8062F012309F46C
:1002640011C0000098BB0000169530F000C0062FA6
:10027400012338BBB1F706C010E8022F012338BBB5
:1002840091F41DC098BB169538F0000038BB00C02F
:10029400062F012331F7F6CF38BB000010E8022FF8
:1002A400012309F40CC0000098BB00C0169530F07F
:1002B4000000022F012338BBB1F701C00AC098BB6C
:1002C400169538F0000038BB00C0022F012359F7FF
:0A02D400F6CF38BB1F910F9108957B
:1002DE00CF9383E079D0C82F82E076D02C2F30E0F8
:1002EE00811113C0C901880F991F820F931F092E08
:1002FE00000CAA0B8A599F4FAF4FFC015A2F5AD0B0
:10030E00472F282F88E03CD005C020E040E060E079
:08031E0088E036D0CF9108956C
:10032600CF93C82F55D061E0811160E08C2F3AD071
:100336000BD02FEF82E597E0215080409040E1F707
:0803460000C00000CF910895F2
:10034E0080E042D08093620081E03ED080936500D1
:10035E0082E03AD08093610083E036D080936000D3
:02036E000895F0
:1003700087B3806187BBEBDF80E48BBF82E085BF02
:0E038000AEDF789483E08A95F1F70000FBCFA2
:10038E0097B3982B97BB98B3382F3095932398BB80
:0C039E0090EA9A95F1F700002EDF089518
:1003AA00E199FECF1CBA8EBB6DBB8CB384608CBB4B
:0803BA008CB382608CBB089536
:1003C20057FD04C065917591859108956191719170
:0403D2008191089578
:1003D600E199FECF8EBB8CB381608CBB8DB3089543
:0E03E600EC0107D005D0CE0105D0CE0104D029
:0203F40005CE34
:0203F600089568
:0203F800089566
:0203FA00089564
:0203FC0032DEEF
:00000001FF
