:100000000CC048C0F8C1F7C1F6C1F5C1F4C1F3C1D5
:10001000F2C1F1C100600062800011241FBECFE96F
:10002000CDBFE4E1F0E040E017C0B591A591359176
:100030002591059107FD0CC095918591EF01F92F50
:10004000E82F05900D92A217B307D9F7FE0104C05F
:100050001D92A217B307E1F7E931F40731F775D123
:06006000C3C1F894FFCFBC
:10006600C0C0C0808080FFFFFF800000FF000080CE
:100076000D80FF00FF00800000FF00808000FFFF72
:0D008600000000800000FF00808000FFFFF0
:100094001F920F920FB60F9211242F933F934F93F9
:1000A4005F936F937F938F939F93AF93BF93CF93FC
:1000B400DF93EF93FF93F894C0E0D0E070E02DC09D
:1000C40066B3617004C043E04A95F1F7000046B39B
:1000D400842F817090E0462F50E08417950799F3A0
:1000E400B2990AC041E050E0072E02C0440F551FE8
:1000F4000A94E2F7C42BD52B66B3617004C043E0C5
:100104004A95F1F7000046B3242F217030E0462FC2
:1001140050E02417350799F37F5F7C3088F2CC30A8
:1001240084E0D80771F48091600081110AC088B31B
:10013400806188BB40E060E080E0F5D088B38F7ECA
:1001440088BBCC3098E0D90799F480916100811183
:100154000FC088B3806188BB2FEF41EF8BE2215041
:1001640040408040E1F700C0000088B38F7E88BB28
:10017400CE30D10539F480E00FD123D14FEF60E8C0
:1001840080E0D1D0CC3092E0D90739F481E004D1B9
:1001940018D140E060E08FEFC6D0C63024E0D2072B
:1001A40039F482E0F9D00DD140E060E080E0BBD0CA
:1001B400C630D84099F483E00DD161E0680F603116
:1001C40008F061E083E0DCD0FCD08FEF92E527E01B
:1001D400815090402040E1F700C000007894FF91E6
:1001E400EF91DF91CF91BF91AF919F918F917F91CB
:1001F4006F915F914F913F912F910F900FBE0F9090
:040204001F9018959A
:100208000F931F9397B3982B97BB98B3382F3095BC
:100218003923982B042F10E8012311F411C0000092
:1002280098BB0000169530F000C0042F012338BB9E
:10023800B1F706C010E8062F012338BB91F422C09D
:1002480098BB169538F0000038BB00C0042F012376
:1002580031F7F6CF38BB000010E8062F012309F468
:1002680011C0000098BB0000169530F000C0062FA2
:10027800012338BBB1F706C010E8022F012338BBB1
:1002880091F41DC098BB169538F0000038BB00C02B
:10029800062F012331F7F6CF38BB000010E8022FF4
:1002A800012309F40CC0000098BB00C0169530F07B
:1002B8000000022F012338BBB1F701C00AC098BB68
:1002C800169538F0000038BB00C0022F012359F7FB
:0A02D800F6CF38BB1F910F91089577
:1002E200CF9383E078D0C82F82E075D02C2F30E0F6
:1002F200811113C0C901880F991F820F931F092E04
:10030200000CAA0B8A599F4FAF4FFC015A2F50D0B5
:10031200472F282F88E027D005C020E040E060E08A
:0803220088E021D0CF9108957D
:10032A00242F462F682F88E01AD02FEF82E597E016
:10033A00215080409040E1F700C00000CDDF0895D1
:10034A0087B3806187BB3AD080E48BBF82E085BFE8
:0E035A00C3DF789483E08A95F1F70000FBCFB3
:1003680097B3982B97BB98B3382F3095932398BBA6
:0C03780090EA9A95F1F7000043DF089529
:10038400E199FECF1CBA8EBB6DBB8CB384608CBB71
:080394008CB382608CBB08955C
:10039C00CF93C82F1BD061E0811160E08C2FECDF74
:0603AC000CD0CF91089572
:1003B20057FD04C065917591859108956191719180
:0403C2008191089588
:1003C60080E007D08093600081E003D080936100D5
:0203D600089588
:1003D800E199FECF8EBB8CB381608CBB8DB3089541
:0E03E800EC0107D005D0CE0105D0CE0104D027
:0203F60004CE33
:0203F800089566
:0203FA00089564
:0203FC00089562
:0203FE0031DEEE
:00000001FF
