:100000000CC048C0F2C1F1C1F0C1EFC1EEC1EDC1F9
:10001000ECC1EBC100600064800011241FBECFE979
:10002000CDBFE4E1F0E040E017C0B591A591359176
:100030002591059107FD0CC095918591EF01F92F50
:10004000E82F05900D92A217B307D9F7FE0104C05F
:100050001D92A217B307E1F7E931F40731F783D115
:06006000BDC1F894FFCFC2
:10006600C0C0C0808080FFFFFF800000FF000080CE
:100076000D80FF00FF00800000FF00808000FFFF72
:0D008600000000800000FF00808000FFFFF0
:100094001F920F920FB60F9211242F933F934F93F9
:1000A4005F936F937F938F939F93AF93BF93CF93FC
:1000B400DF93EF93FF93F894C0E0D0E070E02DC09D
:1000C40066B3617004C043E04A95F1F7000046B39B
:1000D400842F817090E0462F50E08417950799F3A0
:1000E400B2990AC041E050E0072E02C0440F551FE8
:1000F4000A94E2F7C42BD52B66B3617004C043E0C5
:100104004A95F1F7000046B3242F217030E0462FC2
:1001140050E02417350799F37F5F7C3088F2CC30A8
:1001240084E0D80799F48091620081110FC088B3EC
:10013400806188BB9FEF2BED45E09150204040400B
:10014400E1F700C0000088B38F7E88BBCC3088E024
:10015400D80799F48091630081110FC088B380613E
:1001640088BB9FEF21EF4BE2915020404040E1F7E4
:1001740000C0000088B38F7E88BBCE30D10519F44F
:1001840080E0CAD0DDD0CC3082E0D80719F481E019
:10019400C3D0D6D0C63094E0D90719F482E0BCD0DD
:1001A400CFD0C630D84099F483E00ED161E0680F17
:1001B400603108F061E083E0F1D0C2D04FEF82E516
:1001C40097E0415080409040E1F700C000007894EF
:1001D400FF91EF91DF91CF91BF91AF919F918F915B
:1001E4007F916F915F914F913F912F910F900FBE2F
:0601F4000F901F9018950A
:1001FA000F931F9397B3982B97BB98B3382F3095CB
:10020A003923982B042F10E8012311F411C00000A0
:10021A0098BB0000169530F000C0042F012338BBAC
:10022A00B1F706C010E8062F012338BB91F422C0AB
:10023A0098BB169538F0000038BB00C0042F012384
:10024A0031F7F6CF38BB000010E8062F012309F476
:10025A0011C0000098BB0000169530F000C0062FB0
:10026A00012338BBB1F706C010E8022F012338BBBF
:10027A0091F41DC098BB169538F0000038BB00C039
:10028A00062F012331F7F6CF38BB000010E8022F02
:10029A00012309F40CC0000098BB00C0169530F089
:1002AA000000022F012338BBB1F701C00AC098BB76
:1002BA00169538F0000038BB00C0022F012359F709
:0A02CA00F6CF38BB1F910F91089585
:1002D400CF9383E079D0C82F82E076D02C2F30E002
:1002E400811113C0C901880F991F820F931F092E12
:1002F400000CAA0B8A599F4FAF4FFC015A2F5AD0BA
:10030400472F282F88E03CD005C020E040E060E083
:0803140088E036D0CF91089576
:10031C00CF93C82F55D061E0811160E08C2F3AD07B
:10032C000BD02FEF82E597E0215080409040E1F711
:08033C0000C00000CF910895FC
:1003440080E042D08093620081E03ED080936300DD
:1003540082E03AD08093610083E036D080936000DD
:020364000895FA
:1003660087B3806187BBEBDF80E48BBF82E085BF0C
:0E037600AEDF789483E08A95F1F70000FBCFAC
:1003840097B3982B97BB98B3382F3095932398BB8A
:0C03940090EA9A95F1F700002EDF089522
:1003A000E199FECF1CBA8EBB6DBB8CB384608CBB55
:0803B0008CB382608CBB089540
:1003B80057FD04C06591759185910895619171917A
:0403C8008191089582
:1003CC00E199FECF8EBB8CB381608CBB8DB308954D
:0E03DC00EC0107D005D0CE0105D0CE0104D033
:0203EA000ACE39
:0203EC00089572
:0203EE00089570
:0203F00008956E
:0203F20037DEF4
:00000001FF
